:08000000803102288731FD2F39
:100E5A002F0096019701980199019A019B010800B8
:100E6A00103031008D008F019101053093009201FD
:100E7A00101C402F412F3D2F0800803027008E0084
:100E8A0034308D00C0308C0024001F08F339043838
:100E9A009F0008000130250090008F019101343035
:100EAA008D008C012E009010803025008E000800E5
:100EBA0087312D2787318731822787318731352737
:100ECA00873187314227873187314F278731080099
:100EDA007108F3007008F200F336F20CF336F20CE4
:100EEA00720827008D0070080339F2000630F235C7
:100EFA00890B7C2F72088C00080020009A01990146
:100F0A0096019701980107309500FE309100FF3055
:100F1A009200FF309300FF309400FF303E00D9006A
:100F2A00FF30CE00FF30C3000730E400FF30B800C6
:100F3A00DA01E501C401B901CF01E601BA01C5012F
:100F4A00D001DB01FF30BB00FF30C600FF30D1000B
:100F5A00FF30DC000730E700FF30BC00FF30C7007D
:100F6A00FF30D200FF30DD000730E8000E3090007D
:100F7A00080087315D278731F501F6017608F1000F
:100F8A007508F00087316D2787312030F4002A3048
:100F9A00890BCD2FF40BCD2F0130F5070030F63D2C
:100FAA0000307602D23003197502031CDD2FDE2FC2
:100FBA00C32FD230F5000030F6007608F10075082C
:100FCA00F00087316D2787312030F4002A30890BF1
:100FDA00EC2FF40BEC2F0130F5020030F63B7508CC
:100FEA007604031DF92FFA2FE22FC12F8031022830
:060FFA0020008731BE2F2C
:020000040001F9
:0A000E009C3FFF3F9F3FFF3FFF3F75
:00000001FF
